S016000055534152545F4558414D504C45312E73726563E3
S11300007AC100009EC100009CC100009AC100009A
S113001098C1000096C1000094C1000092C1000084
S113002090C100008EC100000C94EB0D0C94B80933
S113003088C100000C94C40A84C1000082C100007D
S113004080C100007EC100007CC100007AC10000B4
S113005078C1000076C1000074C1000072C10000C4
S113006070C100006EC100006CC100006AC10000D4
S113007068C1000066C1000064C1000062C10000E4
S113008060C100005EC100005CC100005AC10000F4
S113009058C1000056C1000054C1000052C1000004
S11300A050C100004EC100004CC100004AC1000014
S11300B048C1000046C100000C94280B42C1000056
S11300C040C100003EC100003CC100003AC1000034
S11300D038C1000036C1000034C1000032C1000044
S11300E030C100002EC100002CC100002AC1000054
S11300F028C1000026C1000024C1000022C1000064
S113010020C100001EC100001CC100001AC1000073
S113011018C1000016C1000014C1000012C1000083
S113012010C100000EC100000CC100000AC1000093
S11301300C94F60A06C1000004C1000002C10000CC
S113014000C10000FEC00000FCC00000FAC00000B6
S1130150F8C00000F6C00000F4C00000F2C00000C7
S1130160F0C00000EEC00000ECC00000EAC00000D7
S1130170E8C00000E6C00000E4C00000E2C00000E7
S1130180E0C00000DEC00000DCC00000DAC00000F7
S1130190D8C00000D6C00000D4C00000D2C0000007
S11301A0D1C00000CEC00000CCC000000C945A0B9B
S11301B0C8C00000C6C00000C4C00000C2C0000027
S11301C0C0C00000BEC00000BCC00000BAC0000037
S11301D0B8C00000B6C00000B4C00000B2C0000047
S11301E0B0C00000AEC00000ACC00000AAC0000057
S11301F0A8C000006E616E00696E660000407A104F
S1130200F35A00A0724E18090010A5D4E80000E8C3
S11302107648170000E40B54020000CA9A3B000021
S113022000E1F505000080969800000040420F00B0
S11302300000A08601000000102700000000E80371
S1130240000000006400000000000A00000000003C
S11302500100000000002C76D888DC674F0823DFFB
S1130260C1DFAE59E1B1B796E5E3E453C63AE651CE
S1130270997696E8E6C28426EB898C9B62ED407CF5
S11302806FFCEFBC9C9F40F2BAA56FA5F490055A91
S11302902AF75C936B6CF9676DC11BFCE0E40D47B6
S11302A0FEF520E6B500D0ED902E030094357705D9
S11302B00080841E080000204E0A000000C80C3391
S11302C03333330F986E12831141EF8D2114893B20
S11302D0E65516CFFEE6DB18D1844B381BF77C1DA0
S11302E0901DA4BBE424203284725E228100C9F1F3
S11302F024ECA1E53D2711241FBECFEFCDBFDFE3E2
S1130300DEBF00E00CBF18BE19BE1ABE1BBE11E250
S1130310A0E0B0E2E4E9FDE200E00BBF02C0079018
S11303200D92A234B107D9F71BBE22E2A2E4B1E2D6
S113033001C01D92AA33B207E1F70E94D10E0C94BA
S1130340C8165ECE1F920F920FB60F92112408B6F4
S11303500F9218BE09B60F9219BE0BB60F921BBEB0
S11303602F933F934F935F936F937F938F939F93B9
S1130370AF93BF93EF93FF93E0914C21F0914D2104
S1130380309749F08091A80682FF05C080914A21E8
S113039090914B211DC0E0914821F0914921309763
S11303A049F08091A80683FF05C080914621909171
S11303B047210EC0E0914421F0914521309749F046
S11303C08091A80684FF05C0809142219091432129
S11303D0199581E08093AC06FF91EF91BF91AF91A5
S11303E09F918F917F916F915F914F913F912F9149
S11303F00F900BBE0F9009BE0F9008BE0F900FBE5A
S11304000F901F90189543E050E064E080EA96E076
S11304105FD040E050E068E080EA96E059D0F8947C
S113042087E0E0EAF0E08283789408958FEF809388
S113043070008093710080937200809373008093A6
S11304407400809375008093760061E081E490E00D
S11304506FD78091510084FF0DC064E080E490E088
S113046067D79FB7F894809150008E7F8093500097
S11304709FBF08958091510081FF0CC09FB7F894ED
S113048088E88093550080915000806180935000EB
S11304909FBF0DC09FB7F8948091500082608093F5
S11304A050009FBF8091510081FFFCCFE7CF809126
S11304B0510084FFFCCFD1CF9FB7F894E82FF0E030
S11304C0E059FF4F60958081862380839FBF089504
S11304D0FC0180E090E0262F30E0D901082E02C014
S11304E0B595A7950A94E2F7A0FF05C0DF01A80F10
S11304F0B91F50965C9301968830910571F740FFBF
S113050007C041FF02C0658301C06683618308950B
S1130510628308956150710981099109611571051A
S113052081059105B9F70895CF93DF931F92CDB755
S1130530DEB7198221E030E0AE014F5F5F4FF1D5A5
S113054089810F90DF91CF910895CF93DF93CDB739
S1130550DEB76697CDBFDEBFAE014F5F5F4F26E1CA
S1130560FA0111922A95E9F726E130E06AEAD9D531
S1130570298130E0322F22274A81242B20934E21D7
S113058030934F212B8130E0322F22274C81242BB2
S113059020935021309351212D8130E0322F222796
S11305A04E81242B20935221309353212F8130E00C
S11305B0322F22274885242B209354213093552110
S11305C0298530E0322F22274A85242B2093562177
S11305D0309357212B8530E0322F22274C85242B52
S11305E020935821309359212D8530E0322F222732
S11305F04E85242B20935A2130935B212F8530E0A4
S1130600322F22274889242B20935C2130935D21AB
S1130610298930E0322F22274A89242B20935E2116
S113062030935F212B8930E0322F22274C89242BF1
S113063020936021309361212D8930E0322F2227CD
S11306404E89242B209362213093632121E0469725
S113065009F020E0822F6696CDBFDEBFDF91CF91F7
S113066008950F931F93CF93DF9300D0CDB7DEB7D8
S11306708C018EE28B8321E030E0AE014D5F5F4F51
S113068064EFC8018CD56AE278E680E090E042DF4E
S113069022E030E0AE014F5F5F4F66EFC80141D505
S11306A0892B61F06981862F90E0A0E0B0E0662795
S11306B0782F892F9A2F2A81622B03C06FEF7FEF47
S11306C0CB012396CDBFDEBFDF91CF911F910F9158
S11306D008952F923F924F925F926F927F928F92E2
S11306E09F92AF92BF92CF92DF92EF92FF920F93BD
S11306F01F93CF93DF93CDB7DEB72D97CDBFDEBF6A
S1130700FC011A01663011F1693009F4EFC163305C
S113071009F04BC20081118160EDC80105DF482F4B
S113072050E060E070E0F1014083518362837383A1
S113073061EDC801F9DE90E0A0E0B0E0F10184834E
S11307409583A683B78301E00D8334C280809180B2
S1130750809164218295880F880F807C8C5C8C83C7
S113076021E030E0AE014C5F5F4F64EFC40117D568
S1130770E3E0F0E00090642102C0EE0FFF1F0A9452
S1130780E2F732969F2F990F990BA12C58E4B52EBE
S113079068EEC62EDD24D394E12CF12C00E010E0A9
S11307A09F01492F592F692F792F892F0E94D11426
S11307B029513C4F4F4F5F4F6F4F7F4F8F4F9F4F8C
S11307C00E94451020E030E84BEB55E40E94660F90
S11307D00E94D30FB901CA019DDE23E030E0AE01CF
S11307E04F5F5F4F66EFC4019CD4892B69F0298168
S11307F08A8190E0A0E0B0E0BA2FA92F982F882733
S1130800A22B2B81822B03C08FEF9FEFDC01409141
S1130810642128E030E0241B31097C018D0104C0EF
S113082015950795F794E7942A95D2F7EA86FB86FF
S11308300C871D87D1015096BC91BD83B11108C0AE
S1130840F101E082F1820283138301E00D83B2C1DE
S1130850C40107DF9B01AC0180915821909159217B
S1130860281B390B41095109A0915621B0915721F8
S11308700E94C1146B017C013FE0F594E794D79486
S1130880C7943A95D1F760916021709161218827CE
S113089077FD8095982F4BE0660F771F881F991F6F
S11308A04A95D1F72091622130916321442737FD85
S11308B04095542F2C0D3D1D4E1D5F1D0E94961416
S11308C049015A018C0C9D1CAE1CBF1C10EA811AF4
S11308D01FE0910AA108B108A5019401C501B40162
S11308E00E9465142B013C016CE075946794579445
S11308F047946A95D1F700914E2110914F21E091D0
S11309006421A0915221B09153210E94CB146B0118
S11309107C017DE0F594E794D794C7947A95D1F758
S1130920A0915A21B0915B21A30192010E94CB14A2
S1130930BB2797FDB095AB2FC80ED91EEA1EFB1E30
S113094022E0C20ED11CE11CF11CA2E0F594E79454
S1130950D794C794AA95D1F740E8D40EE11CF11CB2
S1130960A0915421B0915521A70196010E94C11470
S1130970BFE09695879577956795BA95D1F76E837D
S11309807F83888799876801EE24D7FCE094FE2C46
S113099012E0CC0CDD1CEE1CFF1C1A95D1F7A091C3
S11309A05C21B0915D21A30192010E94CB142B0123
S11309B03C010BE075946794579447940A95D1F7DA
S11309C0A0915021B0915121A50194010E94CB1412
S11309D02BE095958795779567952A95D1F7460EDF
S11309E0571E681E791EC40CD51CE61CF71C0E2E5F
S11309F004C0CC0CDD1CEE1CFF1C0A94D2F752E0A0
S1130A00C50ED11CE11CF11C32E0F594E794D79497
S1130A10C7943A95D1F72A853B854C855D852C1979
S1130A203D094E095F0960E573EC80E090E004C085
S1130A309595879577956795EA95D2F70E94651401
S1130A4097FD0DC0660F771F881F991F2E813F8168
S1130A50488559850E94741449015A010CC02E819D
S1130A603F81488559850E94741449015A01880CB4
S1130A70991CAA1CBB1C9927B7FC9A958B2D7A2D1F
S1130A80692D9B01AC010E9465149B01AC01AEED84
S1130A90BBE00E94C1146C01FF24D7FCF094EF2C3E
S1130AA0A3E4B3EEA50194010E94CD14BB2797FDE6
S1130AB0B095AB2FC80ED91EEA1EFB1E6FECC60EF6
S1130AC06EE0D61EE11CF11C84E0F594E794D79403
S1130AD0C7948A95D1F7C80CD91CEA1CFB1CD10118
S1130AE0CD92DD92ED92FC92139764C08081918146
S1130AF0B8DDF101F089FD83F11109C0D1016D93D5
S1130B007D938D939C93139701E00D8353C02091A3
S1130B105821309159217B018C01E21AF30A010911
S1130B201109A8019701A0915621B09157210E9463
S1130B30C1146B017C01EFE0F594E794D794C7945A
S1130B40EA95D1F76091602170916121882777FD42
S1130B508095982FFBE0660F771F881F991FFA95E1
S1130B60D1F72091622130916321442737FD4095CC
S1130B70542F2C0D3D1D4E1D5F1D0E9496142C0DEF
S1130B803D1D4E1D5F1D285F3F4F4F4F5F4FA4E03B
S1130B905595479537952795AA95D1F7D1012D936A
S1130BA03D934D935C93139705C080E092E887834F
S1130BB090871D828D812D96CDBFDEBFDF91CF91B1
S1130BC01F910F91FF90EF90DF90CF90BF90AF9067
S1130BD09F908F907F906F905F904F903F902F9059
S1130BE008950F931F93CF93DF931F92CDB7DEB772
S1130BF0FC0100811181603169F5FA018081863040
S1130C0028F4843098F48130A9F029C08730A9F001
S1130C1080F08B3021F586EB898321E030E0AE0152
S1130C204F5F5F4F60EEC801BAD20AC010926421D0
S1130C3007C082E08093642103C083E08093642131
S1130C402091642130E0205F3F4FF801268F378FD9
S1130C5081E006C020E030E8FC012783308780E093
S1130C600F90DF91CF911F910F910895FF920F93F1
S1130C701F93CF93DF938C01FC01C081D18160ED80
S1130C80CE0152DC853511F080E014C061EDCE0157
S1130C904BDCF82EF1E08F13F7CFCE0156DC26EAB9
S1130CA030E2F80122833383F092642121E130E0C1
S1130CB02E8F3F8FDF91CF911F910F91FF90089559
S1130CC0CF92DF92EF92FF920F931F93CF93DF9314
S1130CD0EC018B017A016901CB01ADD28883998340
S1130CE00C831D83CB86DC86009779F0DC0190961B
S1130CF0ED91FC919197B701CE011995882329F0C4
S1130D0081E08E831F82188605C080E092E08F8385
S1130D10988780E0DF91CF911F910F91FF90EF9022
S1130D20DF90CF9008951F93CF93DF93EA01DC0106
S1130D301296ED91FC9113970190F081E02D30977C
S1130D4051F01995182F882361F071D26C877D8733
S1130D508E879F8706C020E032E8FC012783308716
S1130D6010E0812FDF91CF911F910895CF92DF92F0
S1130D70EF92FF920F931F93CF93DF93CDB7DEB71C
S1130D806197CDBFDEBF6B017A01AE014F5F5F4F4C
S1130D9063E0C9DF882361F009811A812B813C81DA
S1130DA0F60100831183228333839D81F7019083AD
S1130DB06196CDBFDEBFDF91CF911F910F91FF9060
S1130DC0EF90DF90CF9008950F931F93CF93DF930D
S1130DD01F92CDB7DEB78C016983D80116969C911A
S1130DE01697691701F11296ED91FC911397028001
S1130DF0F381E02D309749F0AE014F5F5F4F60E122
S1130E00C8011995811107C00FC080E092E8F8016C
S1130E108783908708C099819B3009F491E0D801B9
S1130E2016969C9301C080E00F90DF91CF911F91A3
S1130E300F910895EF92FF920F931F93CF93DF9337
S1130E40CDB7DEB72997CDBFDEBF8C01CE010196A9
S1130E507C0189E0F70111928A95E9F749835A8365
S1130E606B837C839A01AB01220F331F441F551FF0
S1130E7060E078E488EE91E00E9474142550310912
S1130E80410951092D833E834F835887011511056C
S1130E9009F436C1003C110521F460E180E00CDB6B
S1130EA02FC10034F4E01F0721F468E080E004DB84
S1130EB027C1011584E0180721F464E080E0FCDA1E
S1130EC01FC1003891E0190721F462E080E0F4DAF0
S1130ED017C10115E1E01E0721F461E080E0ECDABE
S1130EE00FC10038F3E01F0721F461E081E0E4DA88
S1130EF007C1003983E0180721F461E082E0DCDAFD
S1130F00FFC0011592E0190721F462E081E0D4DA10
S1130F10F7C00034E2E01E0721F462E082E0CCDA9C
S1130F20EFC00115F3E01F0721F464E081E0C4DAA7
S1130F30E7C0003283E0180721F464E082E0BCDA01
S1130F40DFC0011598E0190721F461E083E0B4DA09
S1130F50D7C00115E9E01E0721F461E084E0ACDAB2
S1130F60CFC00115FAE01F0721F461E085E0A4DA9F
S1130F70C7C001158BE0180721F461E086E09CDA14
S1130F80BFC0003498E0190721F462E083E094DAEA
S1130F90B7C00034E9E01E0721F462E084E08CDA93
S1130FA0AFC00034FAE01F0721F462E085E084DA80
S1130FB0A7C000348BE0180721F462E086E07CDAF5
S1130FC09FC0003998E0190721F464E083E074DAE3
S1130FD097C00039E9E01E0721F464E084E06CDA8C
S1130FE08FC00039FAE01F0721F464E085E064DA79
S1130FF087C000398BE0180721F464E086E05CDAEE
S11310007FC0003C98E0190721F468E083E054DADB
S113101077C0003CE9E01E0721F468E084E04CDA84
S11310206FC0003CFAE01F0721F468E085E044DA71
S113103067C0003C8BE0180721F468E086E03CDAE6
S11310405FC0003A98E0190721F460E183E034DAE4
S113105057C0003AE9E01E0721F460E184E02CDA8D
S11310604FC0003AFAE01F0721F460E185E024DA7A
S113107047C0003A8BE0180721F460E186E01CDAEF
S11310803FC0003B98E0190721F460E283E014DAE2
S113109037C0003BE9E01E0721F460E284E00CDA8B
S11310A02FC0003BFAE01F0721F460E285E004DA78
S11310B027C0003B8BE0180721F460E286E0FCD9EE
S11310C01FC0003894E0190721F460E483E0F4D9E8
S11310D017C00039E4E01E0721F460E484E0ECD991
S11310E00FC0003AF4E01F0721F460E485E0E4D97E
S11310F007C0003B84E0180719F460E486E0DCD9FB
S1131100B701C80109D391E0811190E0892F299694
S1131110CDBFDEBFDF91CF911F910F91FF90EF9074
S113112008950F931F93CF93DF93CDB7DEB72D9719
S1131130CDBFDEBF8C01FE0131968BE0DF011D9235
S11311408A95E9F7D80113968C91139789836A835A
S113115061E070E06D837E834F83588729873A87E7
S113116016968C9116978B8741E0BF0111968D914D
S11311709C9112972C873D87E4D2F80185832C85B6
S11311803D85882319F080E090E001C0C9012D96C7
S1131190CDBFDEBFDF91CF911F910F9108950F93C3
S11311A01F93CF93DF93CDB7DEB72D97CDBFDEBFAF
S11311B08C01FE0131968BE0DF011D928A95E9F7DF
S11311C0D80113968C91139789836A8361E070E048
S11311D06D837E834F83588729873A8716968C912F
S11311E016978B8740E0BF0111968D919C911297C1
S11311F02C873D87A6D2F80185832C853D858823DD
S113120019F080E090E001C0C9012D96CDBFDEBF8A
S1131210DF91CF911F910F91089561507109810958
S113122091096115710581059105B9F7089560E08B
S113123070E0CB01089520911020309111202823D3
S113124039232817390719F480E090E2089580E0E3
S113125090E00895CF93EAD822D040E85AE166E0BE
S113126070E080EB94E0E6DDC82F6AEA71E184E087
S113127090E0D3DF8C2FCF910895AB01982F9695F2
S113128096959695877061E070E001C0660F8A9527
S1131290EAF720E2929FC00111249A5F19C963E022
S11312A070E080E2EADF63E070E081E2E6DF63E0C1
S11312B070E082E2E2DF63E070E083E2DEDF63E0BD
S11312C070E084E2DADF63E070E085E2D6DF63E0B9
S11312D070E086E2D2DF63E070E087E2CEDF60E0B8
S11312E078E188E1CADF60E078E189E1C6DF60E0A7
S11312F078E18AE1C2DF60E078E18BE1BEDF60E0A3
S113130078E18CE1BADF60E078E18DE1B6DF60E09E
S113131078E188E7B2DF60E078E189E7AEDF63E097
S113132070E083E1AADF60E070E082E1A6DF6BC8D1
S11313301BBEFC0128ED24BF6083089564E080E0B7
S1131340BBD8E0E0F4E08FEF9FEF828793871086AD
S113135011869FB7F894E4EFF1E280818F5F808378
S11313609FBFE0E0F4E081E0828387E0808308951A
S11313701F920F920FB60F92112408B60F9218BE47
S113138009B60F9219BE0BB60F921BBECF92DF9215
S1131390EF92FF920F931F932F933F934F935F937B
S11313A06F937F938F939F93AF93BF93EF93FF9329
S11313B06091F7217091F8210091F9211091FA219F
S11313C06017710798F181E080930204E091FD2198
S11313D0F091FE21309751F1C0900804D090090497
S11313E0CB01A0E0B0E077276627E12CF12C6C2933
S11313F07D298E299F2920E030E0980111270027BC
S1131400C090FB21D090FC21E12CF12C0C291D294A
S11314102E293F29061717072807390730F0C90175
S1131420B8016F5F7F4F8F4F9F4F1995FF91EF91D9
S1131430BF91AF919F918F917F916F915F914F91E8
S11314403F912F911F910F91FF90EF90DF90CF90DC
S11314500F900BBE0F9009BE0F9008BE0F900FBEE9
S11314600F901F901895CF93DF93E0916521F09131
S11314706621848183FF06C08860848383E083833C
S113148086EF7DC0982F947121F083E083838FEFE2
S113149076C086FF40C0A0916721B09168218091F9
S11314A0692190916A2114962D913C911597821788
S11314B0930764F49C012F5F3F4F2093692130937D
S11314C06A21A80FB91F11968C9121C080916B21BC
S11314D090916C2118962D913C911997821793073E
S11314E0C0F420916D21222321F0868181608683BE
S11314F048C016960D90BC91A02D9C012F5F3F4FC4
S113150020936B2130936C21A80FB91F8C91878392
S113151038C083E02BC087FF31C0A0916721B09110
S1131520682180916B2190916C2118962D913C91AA
S1131530199782179307F0F41696CD91DC911797BB
S11315409C012F5F3F4F20936B2130936C21478187
S1131550C80FD91F488318968D919C911997281705
S1131560390718F482E083830CC087E083831092E8
S11315706F2107C083E0838389EF01C08BEF8093E1
S11315806F21DF91CF9108951F920F920FB60F92A2
S1131590112408B60F9218BE09B60F9219BE0BB6E5
S11315A00F921BBE2F933F934F935F936F937F9341
S11315B08F939F93AF93BF93EF93FF9354DFFF9168
S11315C0EF91BF91AF919F918F917F916F915F91B7
S11315D04F913F912F910F900BBE0F9009BE0F902A
S11315E008BE0F900FBE0F901F9018951F920F9278
S11315F00FB60F92112408B60F9218BE09B60F92B7
S113160019BE0BB60F921BBE2F933F934F935F935C
S11316106F937F938F939F93AF93BF93EF93FF93B6
S113162022DFFF91EF91BF91AF919F918F917F91B5
S11316306F915F914F913F912F910F900BBE0F903F
S113164009BE0F9008BE0F900FBE0F901F90189503
S11316501F920F920FB60F92112408B60F9218BE64
S113166009B60F9219BE0BB60F921BBE2F933F9370
S11316704F935F936F937F938F939F93AF93BF9396
S1131680EF93FF93F0DEFF91EF91BF91AF919F91A4
S11316908F917F916F915F914F913F912F910F9017
S11316A00BBE0F9009BE0F9008BE0F900FBE0F9097
S11316B01F9018951F920F920FB60F92112408B61F
S11316C00F9218BE09B60F9219BE0BB60F921BBE2D
S11316D02F933F934F935F936F937F938F939F9336
S11316E0AF93BF93EF93FF93BEDEFF91EF91BF9152
S11316F0AF919F918F917F916F915F914F913F91A6
S11317002F910F900BBE0F9009BE0F9008BE0F9043
S11317100FBE0F901F901895FC01DB0114968C915D
S1131720858388EB818381E0848310926E211092FB
S11317306F21E0EAF0E0828182608283789480E025
S11317400895FB01009709F443C0309709F440C0A1
S1131750328520916E21222321F03323E1F386EF99
S113176008952FB7F89431E030936E2130E8309328
S11317706F212FBF8093652190936621E0936721A9
S1131780F09368211092692110926A2110926B21C2
S113179010926C2140936D215081550F2481358125
S11317A0232B11F441115160FC01568380916F2168
S11317B08038E1F3E0916521F091662184818370A2
S11317C0813009F0F7CF80916F2110926E21089536
S11317D088EF0895009709F4F0C0803C910511F456
S11317E060E105C0803424E0920719F468E080E0E9
S11317F0E2C0811524E0920711F464E0F8CF803848
S113180021E0920711F462E0F2CF811521E0920702
S113181011F461E0ECCF803823E0920711F461E029
S113182017C0803923E0920711F461E018C08115D4
S113183022E0920711F462E00BC0803422E09207A8
S113184011F462E00CC0811523E0920719F464E0FE
S113185081E0B1C0803223E0920719F464E082E0B1
S1131860AAC0811528E0920711F461E08FC08115A8
S113187029E0920711F461E090C081152AE09207F3
S113188011F461E091C081152BE0920711F461E03D
S113189091C0803428E0920711F462E077C080346C
S11318A029E0920711F462E078C080342AE09207BC
S11318B011F462E079C080342BE0920711F462E005
S11318C079C0803928E0920711F464E05FC0803960
S11318D029E0920711F464E060C080392AE092079D
S11318E011F464E061C080392BE0920711F464E0E4
S11318F061C0803C28E0920711F468E047C0803C56
S113190029E0920711F468E048C0803C2AE092077D
S113191011F468E049C0803C2BE0920711F468E0C0
S113192049C0803A28E0920711F460E12FC0803A60
S113193029E0920711F460E130C0803A2AE092076E
S113194011F460E131C0803A2BE0920711F460E1B8
S113195031C0803B28E0920711F460E217C0803B5D
S113196029E0920711F460E218C0803B2AE0920754
S113197011F460E219C0803B2BE0920711F460E29D
S113198019C0803824E0920719F460E483E013C09E
S1131990803924E0920719F460E484E00CC0803AB2
S11319A024E0920719F460E485E005C0803B94408C
S11319B021F460E486E00C945C020895FC0121812A
S11319C025FFFCCF608380E090E008958F929F9282
S11319D0AF92BF92CF92DF92EF92FF920F931F9339
S11319E0CF93DF93EC016A017B0148015901B901EE
S11319F0A801A3E07695679557954795AA95D1F7E1
S1131A00D901C80116E1B695A795979587951A95BA
S1131A10D1F72C8122FD08C0769567955795479597
S1131A20B695A795979587954C155D056E057F0529
S1131A3008F497C0C816D906EA06FB0608F491C054
S1131A408C8182FD04C0CC0CDD1CEE1CFF1CC50186
S1131A50B401A701960148D78FEF90E0A0E0B0E071
S1131A6019EF281739074A075B0758F0880F991FA1
S1131A70AA1FBB1F1D3F0CF481601F5F173089F73D
S1131A804BC017FF49C0D701C60103E0880F991F57
S1131A90AA1FBB1F0A95D1F7881A990AAA0ABB0A7A
S1131AA0812F992787FD90951E3FE4F46DEF7FEF1A
S1131AB0681B790BA501940104C0220F331F441F36
S1131AC0551F6A95D2F7CA01B90146015701B69468
S1131AD0A79497948794680D791D8A1D9B1DA7016F
S1131AE0960118C09C012D5F3F4FD701C60104C069
S1131AF0880F991FAA1FBB1F2A95D2F79C01AD011D
S1131B00BC01CD019695879577956795680D791DEC
S1131B108A1D9B1DE9D61CC023E0210FD701C601F5
S1131B2004C0880F991FAA1FBB1F2A95D2F79C01D6
S1131B30AD01BC01CD019695879577956795680DA4
S1131B40791D8A1D9B1DD0D62150310941095109A7
S1131B50832F8F701295107F812B8F832E8381E0CA
S1131B6001C080E0DF91CF911F910F91FF90EF9022
S1131B70DF90CF90BF90AF909F908F9008950F9378
S1131B801F93CF93DF93EC018B0124DE8D818F7340
S1131B908D83F80184819581892B9681992311F095
S1131BA098E001C090E0892B8D83F8014081518138
S1131BB06281738100E018E428EE31E0CE0106DF93
S1131BC09C8198609C839C8190619C83DF91CF91E0
S1131BD01F910F9108951F920F920FB60F92112427
S1131BE008B60F9218BE09B60F9219BE0AB60F9224
S1131BF01ABE0BB60F921BBE2F933F934F935F9366
S1131C006F937F938F939F93AF93BF93CF93DF9300
S1131C10EF93FF93809132228F5F809332228C3333
S1131C20A0F010923222809133228F5F809333226E
S1131C308C3358F010923322809134228F5F80933A
S1131C403422883110F0109234224DE152E266E0E1
S1131C508FEF91E268D84CE052E269E08FEF91E2B5
S1131C6062D8E1E7F1E280E8DF011D928A95E9F7A5
S1131C70809132221F928F93809133221F928F93EF
S1131C80809134221F928F938FEB90E29F938F93D6
S1131C90FF93EF93F7D78DB79EB70A968DBF9EBF7C
S1131CA0C1E7D1E2699180EA98E088DE91E2C13F20
S1131CB0D907C1F760910C2270910D2280910E22F8
S1131CC090910F22A7D120E030E040E251E4FED011
S1131CD09F938F937F936F9360911D2270911E2227
S1131CE080911F229091202295D120E030E048EC91
S1131CF052E4ECD02CEB34E747E052E4E7D09F9376
S1131D008F937F936F9380911B228F9380911A22DC
S1131D108F93809119228F93809118228F9382ED53
S1131D2090E29F938F9381E791E29F938F93AAD739
S1131D30ADB7BEB75096ADBFBEBFC1E7D1E26991A2
S1131D4080EA98E03BDEB1E2C13FDB07C1F7809156
S1131D507021882331F01092702181E080938506F0
S1131D6005C081E08093702180938606FF91EF91F6
S1131D70DF91CF91BF91AF919F918F917F916F919F
S1131D805F914F913F912F910F900BBE0F900ABE20
S1131D900F9009BE0F9008BE0F900FBE0F901F90BA
S1131DA018957DDA87E08093A2000E94160252DA29
S1131DB0C5DA81E08093810685E0809343008091B9
S1131DC0A20081608093A2008091010480FDFCCF79
S1131DD080E094E080930A0490930B04C1E0C093E4
S1131DE00004C093020420E030E040E050E062E0F0
S1131DF070E08FEF91E20E94600667E08FEF91E25E
S1131E000E94E406C0932D22C0931C2262E270E279
S1131E1080EA98E0B4DEC1E5D0E2699180EA98E016
S1131E20CDDD80E2C736D807C1F7809106229091B4
S1131E300722892B61F0C9E2D0E2699180EA98E037
S1131E40BDDD90E2C035D907C1F778943EC0C1E743
S1131E50D1E280E8FE0111928A95E9F749E352E262
S1131E606EE272E28FEF91E20E94B606E091FF21EA
S1131E70F0910022878D8F93868D8F9380913922E4
S1131E801F928F9380912F228F9380912E228F9374
S1131E90E0910122F0910222808D8F9387898F93A4
S1131EA087E091E29F938F93DF93CF93EBD6EDB7C7
S1131EB0FEB73C96EDBFFEBF699180EA98E07EDDF7
S1131EC0F1E2C13FDF07C1F7C0CFFFCF0CD042C161
S1131ED03AD140F031D130F021F45F3F19F013C111
S1131EE051116CC116C147D198F39923C9F35523F5
S1131EF0B1F3951B550BBB27AA27621773078407F9
S1131F0038F09F5F5F4F220F331F441FAA1FA9F3AE
S1131F1033D00E2E3AF0E0E830D091505040E695A0
S1131F20001CCAF729D0FE2F27D0660F771F881F01
S1131F30BB1F261737074807AB07B0E809F0BB0BF0
S1131F40802DBF01FF2793585F4F2AF09E3F510514
S1131F5068F0D9C033C15F3FECF3983EDCF386955B
S1131F6077956795B795F7959F5FC9F7880F911D8A
S1131F709695879597F90895E1E0660F771F881F76
S1131F80BB1F621773078407BA0720F0621B730B29
S1131F90840BBA0BEE1F88F7E0950895BEE304D0D6
S1131FA008F490E80895BFE322273327A901EBD072
S1131FB058F19F5740F1B91738F1BFE3B91B99277E
S1131FC0B8503AF4660F771F881F991FB395D2F360
S1131FD016C0B8504AF0232F342F452F562F672FA1
S1131FE0782F8827B850BAF7B85F49F08695779567
S1131FF067955795479537952795BA95B9F70EF490
S11320008BD088940895889460E070E0CB010895A3
S1132010E89409C097FB3EF490958095709561957E
S11320207F4F8F4F9F4F9923A9F0F92F96E9BB2734
S11320309395F695879577956795B795F111F8CFB0
S1132040FAF4BB0F11F460FF1BC06F5F7F4F8F4F1B
S11320509F4F16C0882311F096E911C0772321F011
S11320609EE8872F762F05C0662371F096E8862FA9
S113207070E060E02AF09A95660F771F881FDAF700
S1132080880F9695879597F90895E894F92F96EB1C
S1132090FF2381F0121613061406440B9395F6954C
S11320A087957795679557954040FF23B9F71BC0EF
S11320B099270895882351F49850D2F7872B762FC7
S11320C0652F542F432F322F20E0B1F3121613063D
S11320D01406440B88233AF09A95440F551F661F43
S11320E0771F881FCAF755234AF4440F551F11F46C
S11320F060FF04C06F5F7F4F8F4F9F4F880F96958F
S1132100879597F9089597F99F6780E870E060E0F4
S113211008959FEF80EC0895909580957095609553
S113212050954095309521953F4F4F4F5F4F6F4FDE
S11321307F4F8F4F9F4F089500240A941616170659
S113214018060906089500240A94121613061406A4
S113215005060895092E0394000C11F4882352F007
S1132160BB0F40F4BF2B11F460FF04C06F5F7F4FBF
S11321708F4F9F4F089557FD9058440F551F59F0A6
S11321805F3F71F04795880F97FB991F61F09F3F60
S113219079F087950895121613061406551FF2CF89
S11321A04695F1DF08C0161617061806991FF1CFD9
S11321B086957105610508940895E894BB27662700
S11321C07727CB0197F908952F923F924F925F9210
S11321D06F927F928F929F92AF92BF92CF92DF9233
S11321E0EF92FF920F931F93CF93DF93CDB7DEB798
S11321F06397CDBFDEBF7C011B016A01FC0116821F
S11322001782838181FF49C3BE016F5F7F4F4B01FA
S1132210F7019381F10193FD859193FF81911F0152
S1132220882309F436C3853239F493FD859193FFED
S113223081911F01853231F4B70190E0F1D4560148
S11322406501E6CF10E0512C20E02032A0F48B325F
S113225069F030F4803259F0833269F420612CC083
S11322608D3239F0803339F4216026C02260246035
S113227023C0286021C027FD27C030ED380F3A3035
S113228078F426FF06C0FAE01F9F300D1124132FA7
S113229013C06AE0569E300D1124532E20620CC0E8
S11322A08E3221F426FDF5C2206406C08C3611F46A
S11322B0206802C0883641F4F10193FD859193FFB3
S11322C081911F018111C1CF9BEB980F933018F4BA
S11322D02061805E06C09BE9980F933008F09AC194
S11322E02F7E26FF16E02F73722E853621F4F22FEF
S11322F0F0647F2E08C0863621F4622F6068762E43
S113230002C01111115077FE07C01C3348F4442455
S11323104394410E27E00BC0183030F4212F06C03F
S113232027E04CE3442E03C027E017E0412C56017C
S113233074E0A70EB11CF6016081718182819381E2
S1132340042DA4017FD36C01098100FF02C003FFA7
S113235006C071FC07C072FC08C0612C08C03DE2D5
S1132360632E05C02BE2622E02C090E2692E802FFC
S11323708C7081F1662011F084E001C083E0851542
S113238010F0512C0AC0581A73FC07C0B70180E240
S113239090E046D45A94D1F7F4CF662021F0B701E7
S11323A0862D90E03DD403FD03C008EF11E002C088
S11323B004EF11E0F72DF0717F2EF801849188234A
S11323C009F45EC271108052B70190E029D40F5F06
S11323D01F4FF3CF77FE0FC04C0C04FF04C08A815B
S11323E0813309F44A94141474F5F8E0F41578F57B
S11323F088E0482E2CC076FC2AC0812F90E08C15F2
S11324009D059CF06CEFC6166FEFD60674F0772D21
S11324107068772E0AC0E2E0F0E0EC0FFD1FE10FD8
S1132420F11D8081803319F411501111F4CF77FE1E
S11324300EC044244394410E812F90E0C816D9065F
S11324402CF41C1904C04424439401C010E077FE0A
S113245007C01C141D043CF496012F5F3F4F05C0B8
S113246025E030E002C021E030E0662011F02F5F6B
S11324703F4F112331F0412F50E04F5F5F4F240F46
S1132480351F452D50E02417350714F4521A01C0A6
S1132490512C872D897041F4552031F0B70180E229
S11324A090E0BED35A94F8CF662021F0B701862D70
S11324B090E0B6D373FC08C0552031F0B70180E337
S11324C090E0AED35A94F8CF77FE5DC09C2D8D2D4D
S11324D0D7FE02C090E080E0692E782E40E050E004
S11324E0C601841991098C879D879601261937099D
S11324F0280D391D812F90E0EE27FF27E81BF90BEB
S1132500EE87FF87FFEF6F167F0661F4B7018EE257
S113251090E02B8B3A8B488B598B82D3598948890D
S11325203A892B89C614D70454F06C857D856615C9
S113253077052CF4F901E40FF51F818101C080E3D4
S113254071E0671A71084F5F5F4FEE85FF856E1665
S11325507F0664F0B70190E02B8B3A8B488B598B44
S11325605FD32B893A8948895989CCCF6C147D046F
S113257039F49A81963318F4953311F404FF81E306
S1132580B70190E045C08A81813309F00F7EB7011D
S113259090E046D3111105C074FE16C085E490E0A6
S11325A015C0B7018EE290E03BD382E066246394C9
S11325B0680EF401E80FF11D8081B70190E030D37B
S11325C0115051F3862DF2CF85E690E0B70128D360
S11325D0D7FC05C0C114D10439F404FF05C0D1945B
S11325E0C194D1088DE201C08BE2B70190E018D309
S11325F080E36AE0C616D1042CF08F5FFAE0CF1AAC
S1132600D108F7CFB70190E00BD3B701C601C0964C
S113261007D336C1833631F0833779F0833509F037
S113262054C020C0560172E0A70EB11CF60180818F
S1132630898301E010E0640113C05601F2E0AF0E9B
S1132640B11CF601C080D18026FF03C0612F70E069
S113265002C06FEF7FEFC6012B8BD7D28C012B8981
S11326602F7714C05601F2E0AF0EB11CF601C08002
S1132670D18026FF03C0612F70E002C06FEF7FEFAF
S1132680C6012B8BB7D28C012B892068722E23FDB7
S113269018C0852D90E00817190798F4B70180E257
S11326A090E0BED25A94F5CFF60177FC859177FE7F
S11326B081916F01B70190E0B3D251105A94015047
S11326C011090115110581F7DBC0843611F0893633
S11326D049F5560127FF09C0F4E0AF0EB11CF6011D
S11326E060817181828193810AC0F2E0AF0EB11CD6
S11326F0F60160817181882777FD8095982F022FDC
S11327000F7697FF08C090958095709561957F4FDF
S11327108F4F9F4F00682AE030E0A401DBD2C82E1F
S1132720C8183DC0022F853721F40F7E2AE030E01F
S11327301DC0097F8F3691F018F4883559F0A9C06F
S1132740803719F0883711F0A4C0006104FF09C074
S1132750046007C024FF08C0066006C028E030E01B
S113276005C020E130E002C020E132E0560107FF5D
S113277009C0F4E0AF0EB11CF60160817181828161
S1132780938108C0F2E0AF0EB11CF6016081718143
S113279080E090E0A4019ED2C82EC8180F7706FFEF
S11327A00BC0202F2E7FC11650F404FF0AC002FD77
S11327B008C0202F2E7E05C0DC2C202F03C0DC2C6B
S11327C001C0D12E24FF0DC0FE01EC0DF11D80814E
S11327D0803311F4297E09C022FF06C0D394D39418
S11327E004C0822F867809F0D39423FD12C020FF01
S11327F006C01C2DD51418F4150D1D19D52CD5148F
S113280060F4B70180E290E02B8B0AD2D3942B8939
S1132810F6CFD51410F45D1801C0512C24FF11C05B
S1132820B70180E390E02B8BFBD12B8922FF16C0EC
S113283021FF03C088E590E002C088E790E0B7017B
S11328400CC0822F867851F021FD02C080E201C0C5
S11328508BE227FD8DE2B70190E0E2D1C11630F49E
S1132860B70180E390E0DCD11150F8CFCA94F401B1
S1132870EC0DF11D8081B70190E0D2D1C110F6CFEB
S1132880552009F4DDCCB70180E290E0C9D15A9417
S1132890F7CFF7018681978102C08FEF9FEF639690
S11328A0CDBFDEBFDF91CF911F910F91FF90EF90CD
S11328B0DF90CF90BF90AF909F908F907F906F905C
S11328C05F904F903F902F900895DB018F939F93DB
S11328D058D0BF91AF91A29F800D911DA39F900DE1
S11328E0B29F900D11240895A1E21A2EAA1BBB1BBE
S11328F0FD010DC0AA1FBB1FEE1FFF1FA217B307C8
S1132900E407F50720F0A21BB30BE40BF50B661FDD
S1132910771F881F991F1A9469F7609570958095A1
S113292090959B01AC01BD01CF010895052E97FB45
S113293016F400940FD057FD05D0D6DF07FC02D063
S113294046F408C050954095309521953F4F4F4F20
S11329505F4F089590958095709561957F4F8F4F47
S11329609F4F0895A29FB001B39FC001A39F700D14
S1132970811D1124911DB29F700D811D1124911D83
S11329800895F0DFA59F900DB49F900DA49F800D36
S1132990911D11240895B7FFF4CFF3DF821B930B2D
S11329A00895DF93CF931F930F939A9DF02D219F4A
S11329B0F00D8B9DF00D8A9DE02DF10D039FF00D20
S11329C0029FE00DF11D4E9DE00DF11D5E9DF00D89
S11329D04F9DF00D7F936F93BF92AF925F934F9390
S11329E0D501C0DF8B01AC01D701BCDFEB01E80FDF
S11329F0F91FD6011FD02F913F91D601B3DFC60F27
S1132A00D71FE81FF91FAF91BF9114D02F913F91A9
S1132A10A9DFC60FD71FE81FF91FD601A3DFE60FF2
S1132A20F71F9801BE01CF0111240F911F91CF917F
S1132A30DF91089597DF460F571FC81FD91F08F469
S1132A4031960895283008F027E03327DA01990FEA
S1132A50311D87FD916000966105710539F432607E
S1132A602E5F3D9330E32A95E1F708959F3F30F0C0
S1132A7080387105610509F03C5F3C5F3D939130FE
S1132A8008F08068911DDF93CF931F930F93FF92FB
S1132A90EF92192F987F9695E92F96959695E90FC1
S1132AA0FF27EA5AFD4F99273327EE24FF24A70175
S1132AB0E70105900894079428F4360FE71EF81EE2
S1132AC0491F511D660F771F881F991F0694A1F790
S1132AD00590079428F4E70EF81E491F561FC11DE0
S1132AE0770F881F991F661F0694A1F70590079416
S1132AF028F4F80E491F561FC71FD11D880F991FB0
S1132B00661F771F0694A1F70590079420F4490FD8
S1132B10561FC71FD81F990F661F771F881F06945B
S1132B20A9F784911095177041F0D695C7955795DC
S1132B304795F794E7941A95C1F7ECEFF1E06894A0
S1132B401590159135916591959105907FE2739556
S1132B50E118F10A430B560BC90BD009C0F7E10C7D
S1132B60F11E431F561FC91FD01D7EF4703311F48C
S1132B708A95E6CFE894015030F0080F0AF4002754
S1132B80021708F4202F2395022F7A3328F079E3D3
S1132B907D932A95E9F710C07D932A9589F60694CA
S1132BA097956795379517951794E118F10A430B94
S1132BB0560BC90BD00998F023957E9173957A33FF
S1132BC008F070E37C932013B8F77E9170617D93D5
S1132BD030F0839571E37D9370E32A95E1F7112436
S1132BE0EF90FF900F911F91CF91DF91992787FD6F
S1132BF090950895FC010590615070400110D8F73C
S1132C00809590958E0F9F1F0895FC016150704030
S1132C1001900110D8F7809590958E0F9F1F08950D
S1132C200F931F93CF93DF93182F092FEB018B8101
S1132C3081FD03C08FEF9FEF20C082FF10C04E8143
S1132C405F812C813D81421753077CF4E881F9812F
S1132C509F012F5F3F4F28833983108306C0E88587
S1132C60F985812F1995892B29F72E813F812F5FB3
S1132C703F4F2E833F83812F902FDF91CF911F9160
S1132C800F9108950F931F93CF93DF93CDB7DEB7C2
S1132C902E97CDBFDEBF0E891F8986E08C83098302
S1132CA01A838FEF9FE78D839E83AE01465E5F4F4D
S1132CB0688D798DCE01019687DAEF81F885E00F72
S1132CC0F11F10822E96CDBFDEBFDF91CF911F91F1
S1132CD00F910895FA01AA27283051F1203181F18A
S1132CE0E8946F936E7F6E5F7F4F8F4F9F4FAF4F10
S1132CF0B1E03ED0B4E03CD0670F781F891F9A1F23
S1132D00A11D680F791F8A1F911DA11D6A0F711DD6
S1132D10811D911DA11D20D009F468943F912AE0E2
S1132D20269F11243019305D3193DEF6CF010895CA
S1132D30462F4770405D4193B3E00FD0C9F7F6CFFB
S1132D40462F4F70405D4A3318F0495D31FD4052C3
S1132D50419302D0A9F7EACFB4E0A6959795879559
S1132D6077956795BA95C9F7009761057105089538
S1132D709B01AC010A2E06945795479537952795E4
S1132D80BA95C9F7620F731F841F951FA01D08957C
S1072D90F894FFCFE1
S1132D9401B00477000000002B0000002A000000AA
S1132DA40200FF00FF00FF0000000000000000001C
S1132DB436068025000003000050726F626C656D56
S1132DC420696E697469616C697A696E67207072CE
S1132DD46573737572652073656E736F72210D0A62
S1132DE4000A0D48656C6C6F2041565220776F724F
S1132DF46C642021203A2000424D50313830204464
S1132E0469676974616C2070726573737572652087
S1132E1473656E736F7200424D50303835204469C7
S1132E24676974616C20707265737375726520735D
S1132E34656E736F72006903F10500000000000001
S1132E441000040000000000000000050087205466
S1132E54696D653A202532643A2532643A25326430
S1132E64090054696D653A20256C750950726573BF
S1132E74737572653A20252E326620696E20486780
S1132E840954656D70657261747572653A20252EF6
S1132E94316620430D0A0025730D0A0D0A53656E2D
S1132EA4736F722049443A20307825303278207682
S1132EB465723A203078253032780D0A2564206210
S1132EC46974207265736F6C7574696F6E0D0A0D85
S1052ED40A00EE
S9030000FC
