:10000000F9C000001BC1000019C1000017C10000A9
:1000100015C1000013C1000011C100000FC1000094
:100020000DC100000BC1000015C2000036C2000067
:1000300005C1000003C1000001C10000FFC00000B5
:10004000FDC00000FBC00000F9C00000F7C00000C8
:10005000F5C00000F3C00000F1C00000EFC00000D8
:10006000EDC00000EBC00000E9C00000E7C00000E8
:10007000E5C00000E3C00000E1C00000DFC00000F8
:10008000DDC00000DBC00000D9C00000D7C0000008
:10009000D5C00000D3C00000D1C00000CFC0000018
:1000A000CDC00000CBC00000C9C00000C7C0000028
:1000B000C5C00000C3C00000C1C00000BFC0000038
:1000C000BDC00000BBC00000B9C00000B7C0000048
:1000D000B5C00000B3C00000B1C00000AFC0000058
:1000E000ADC00000ABC00000A9C00000A7C0000068
:1000F000A5C00000A3C00000A1C000009FC0000078
:100100009DC000009BC0000099C0000097C0000087
:1001100095C0000093C0000091C000008FC0000097
:100120008DC000008BC0000089C0000087C00000A7
:1001300085C0000083C0000081C000007FC00000B7
:100140007DC000007BC0000079C0000077C00000C7
:1001500075C0000073C0000071C000006FC00000D7
:100160006DC000006BC0000069C0000067C00000E7
:1001700065C0000063C0000061C000005FC00000F7
:100180005DC000005BC0000059C0000057C0000007
:1001900055C0000053C0000051C000004FC0000017
:1001A0004DC000004BC0000049C0000047C0000027
:1001B00045C0000043C0000041C000003FC0000037
:1001C0003DC000003BC0000039C0000037C0000047
:1001D00035C0000033C0000031C000002FC0000057
:1001E0002DC000002BC0000029C0000027C0000067
:1001F00025C0000011241FBECFEFCDBFDFE3DEBF5F
:1002000000E00CBF18BE19BE1ABE1BBE10E2A0E073
:10021000B0E2ECEEF6E000E00BBF02C007900D92FA
:10022000A630B107D9F71BBE20E2A6E0B0E201C0BC
:100230001D92A431B207E1F7F5D156C2E1CE8FEF9E
:10024000809370008093710080937200809373009C
:1002500080937400809375008093760081E0E0E4E1
:10026000F0E0838308959FB7F894E82FF0E0E05919
:10027000FF4F60958081682360839FBF0895CF936F
:10028000DF93FC01709620E030E0C62FD0E0DE0165
:10029000022E02C0B595A7950A94E2F7A0FD5083FF
:1002A0002F5F3F4F31962830310589F740FF0AC054
:1002B00041FF03C0FC01658302C0FC016683FC01B1
:1002C000618302C0FC016283DF91CF91089543E016
:1002D00050E061E080E896E0D2DF43E050E062E089
:1002E00080E896E0CCDF43E050E064E080E896E010
:1002F000C6DF43E050E068E080E896E0C0DF43E01E
:1003000050E060E180E896E0BADF43E050E060E270
:1003100080E896E0B4DF43E050E060E480E896E0F7
:10032000AEDF43E050E060E880E896E0A8DF40E020
:1003300058E161E080E696E0A2DF40E058E162E04B
:1003400080E696E09CDF40E058E164E080E696E0DD
:1003500096DF40E058E168E080E696E090DF40E01C
:1003600058E160E180E696E08ADF40E058E160E233
:1003700080E696E084DF40E058E161E080EE97E0BF
:100380007EDF40E058E162E080EE97E078CF0895AC
:100390000F931F93E0E0F4E0818180FDFDCF2FB744
:1003A000F89440910C2050910D20E0E0F4E080851D
:1003B0009185009729F4338130FF02C04F5F5F4F72
:1003C0002FBF60E070E0BA0155274427A0E0B0E0FD
:1003D0008A019B01082B192B2A2B3B2BC901B80141
:1003E0001F910F910895E0E0F4E021E022836487FB
:1003F0007587609310207093112080930E20909346
:100400000F20818180FDFDCFE0E0F4E082E0838376
:1004100085E082830895809312209093132008959D
:1004200064E080E020DFE0E0F4E08FEF9FEF828780
:100430009387108611868FB7F894E9E0F0E29081F7
:100440009F5F90838FBFE0E0F4E081E0828387E0EC
:10045000808308951F920F920FB60F92112408B651
:100460000F9218BE0BB60F921BBE8F939F93EF9304
:10047000FF93ECE0F0E2808191810196808391838B
:10048000FF91EF919F918F910F900BBE0F9008BE3F
:100490000F900FBE0F901F9018951F920F920FB6DE
:1004A0000F92112408B60F9218BE09B60F9219BE0A
:1004B0000BB60F921BBECF92DF92EF92FF920F937B
:1004C0001F932F933F934F935F936F937F938F93DC
:1004D0009F93AF93BF93EF93FF9340910C20509164
:1004E0000D2080910E2090910F2048175907F0F1B0
:1004F00081E0E0E0F4E08283E0911220F0911320AB
:100500003097A1F1A0E0B4E018968D919C911997D5
:1005100060E070E0BA0155274427A0E0B0E08A010E
:100520009B01082B192B2A2B3B2BC901B8010091E9
:100530000E2010910F2020E030E0980111270027B5
:10054000C0901020D0901120E12CF12C0C291D29F5
:100550002E293F29061717072807390730F0C90148
:10056000B8016F5F7F4F8F4F9F4F1995FF91EF91AC
:10057000BF91AF919F918F917F916F915F914F91BB
:100580003F912F911F910F91FF90EF90DF90CF90AF
:100590000F900BBE0F9009BE0F9008BE0F900FBEBC
:1005A0000F901F9018954F925F926F927F928F924B
:1005B0009F92AF92BF92CF92DF92EF92FF926B0128
:1005C0007C0111DF0F2EFAE08F2E912CA12CB12C83
:1005D000F02DC701B601A501940164D02B013C01A7
:1005E000C701B6016419750986099709A501940127
:1005F00059D0CA01B901A501940154D06295607F18
:10060000462A4094E0E8F6E04482FF90EF90DF90C5
:10061000CF90BF90AF909F908F907F906F905F90A2
:100620004F90089587E0E0EAF0E0828350DE07DE35
:100630001092062010920720109208201092092094
:1006400010920A2081E080930B20EADE83ED92E095
:10065000E2DE78949DDEC7DEC6E0D0E287E090E27D
:10066000A8E4B0E0F8942881211107C0FC012F5FB5
:1006700031913323E1F3211102C07894F3CF3C91FF
:10068000E22FF0E0E150F04E232F217F3081232B29
:100690002C932C9121602C93789488952C912E7F0B
:1006A0002C93E0CFA1E21A2EAA1BBB1BFD010DC0AB
:1006B000AA1FBB1FEE1FFF1FA217B307E407F50712
:1006C00020F0A21BB30BE40BF50B661F771F881FEE
:1006D000991F1A9469F760957095809590959B0184
:0C06E000AC01BD01CF010895F894FFCFDC
:0606EC00000E060C0400E4
:00000001FF
